{
	"info": {
		"_postman_id": "eccb7529-f243-4c77-919f-2b688421a641",
		"name": "eth",
		"schema": "https://schema.getpostman.com/json/collection/v2.1.0/collection.json"
	},
	"item": [
		{
			"name": "listaccounts",
			"request": {
				"method": "GET",
				"header": [],
				"body": {
					"mode": "raw",
					"raw": ""
				},
				"url": {
					"raw": "http://192.168.10.79:9000/eth/listaccounts",
					"protocol": "http",
					"host": [
						"192",
						"168",
						"10",
						"79"
					],
					"port": "9000",
					"path": [
						"eth",
						"listaccounts"
					]
				}
			},
			"response": []
		},
		{
			"name": "sendtransaction",
			"request": {
				"method": "POST",
				"header": [],
				"body": {
					"mode": "raw",
					"raw": ""
				},
				"url": {
					"raw": "http://192.168.10.79:9000/owt/sendtransaction?from=0x71987b5db430612615b1a35a2a73124e5e1a9843&to=0xc273167fe35c56e8b07c4e3fdadd399b1e24be30&passphrase=123&value=1&gas=&gasPrice=",
					"protocol": "http",
					"host": [
						"192",
						"168",
						"10",
						"79"
					],
					"port": "9000",
					"path": [
						"owt",
						"sendtransaction"
					],
					"query": [
						{
							"key": "from",
							"value": "0x71987b5db430612615b1a35a2a73124e5e1a9843"
						},
						{
							"key": "to",
							"value": "0xc273167fe35c56e8b07c4e3fdadd399b1e24be30"
						},
						{
							"key": "passphrase",
							"value": "123"
						},
						{
							"key": "value",
							"value": "1"
						},
						{
							"key": "gas",
							"value": ""
						},
						{
							"key": "gasPrice",
							"value": ""
						}
					]
				}
			},
			"response": []
		},
		{
			"name": "getbalance",
			"request": {
				"method": "GET",
				"header": [],
				"body": {
					"mode": "raw",
					"raw": ""
				},
				"url": {
					"raw": "http://localhost:9000/eth/getbalance?address=0xe4bcfb9b6cd697d662cb485ee13e8f0f93b10241",
					"protocol": "http",
					"host": [
						"localhost"
					],
					"port": "9000",
					"path": [
						"eth",
						"getbalance"
					],
					"query": [
						{
							"key": "address",
							"value": "0xe4bcfb9b6cd697d662cb485ee13e8f0f93b10241"
						}
					]
				}
			},
			"response": []
		},
		{
			"name": "blocktransactioncount",
			"request": {
				"method": "GET",
				"header": [],
				"body": {
					"mode": "raw",
					"raw": ""
				},
				"url": {
					"raw": "http://localhost:9000/eth/blocktransactioncount?blknumber",
					"protocol": "http",
					"host": [
						"localhost"
					],
					"port": "9000",
					"path": [
						"eth",
						"blocktransactioncount"
					],
					"query": [
						{
							"key": "blknumber",
							"value": ""
						}
					]
				}
			},
			"response": []
		},
		{
			"name": "blocknumber",
			"request": {
				"method": "GET",
				"header": [],
				"body": {
					"mode": "raw",
					"raw": ""
				},
				"url": {
					"raw": "http://localhost:9000/eth/blocknumber",
					"protocol": "http",
					"host": [
						"localhost"
					],
					"port": "9000",
					"path": [
						"eth",
						"blocknumber"
					]
				}
			},
			"response": []
		},
		{
			"name": "gettransactionfromblock",
			"request": {
				"method": "GET",
				"header": [],
				"body": {
					"mode": "raw",
					"raw": ""
				},
				"url": {
					"raw": "http://localhost:9000/eth/gettransactionfromblock?blknumber=1000000&txindex",
					"protocol": "http",
					"host": [
						"localhost"
					],
					"port": "9000",
					"path": [
						"eth",
						"gettransactionfromblock"
					],
					"query": [
						{
							"key": "blknumber",
							"value": "1000000"
						},
						{
							"key": "txindex",
							"value": null
						}
					]
				}
			},
			"response": []
		},
		{
			"name": "gettransactions",
			"request": {
				"method": "POST",
				"header": [],
				"body": {
					"mode": "raw",
					"raw": ""
				},
				"url": {
					"raw": "http://localhost:9000/eth/gettransactions?blknumber=1000000",
					"protocol": "http",
					"host": [
						"localhost"
					],
					"port": "9000",
					"path": [
						"eth",
						"gettransactions"
					],
					"query": [
						{
							"key": "blknumber",
							"value": "1000000"
						}
					]
				}
			},
			"response": []
		},
		{
			"name": "gettransaction",
			"request": {
				"method": "POST",
				"header": [],
				"body": {
					"mode": "raw",
					"raw": ""
				},
				"url": {
					"raw": "http://localhost:9000/eth/getransaction?tx_hash=0x41fdb6ee351f123335c0bdfc24a191e21b36a71c1ab03da14ddaf29ba539f379",
					"protocol": "http",
					"host": [
						"localhost"
					],
					"port": "9000",
					"path": [
						"eth",
						"getransaction"
					],
					"query": [
						{
							"key": "tx_hash",
							"value": "0x41fdb6ee351f123335c0bdfc24a191e21b36a71c1ab03da14ddaf29ba539f379"
						}
					]
				}
			},
			"response": []
		},
		{
			"name": "gettransactioncount",
			"request": {
				"method": "POST",
				"header": [],
				"body": {
					"mode": "raw",
					"raw": ""
				},
				"url": {
					"raw": "http://localhost:9000/eth/getransaction?tx_hash=0x41fdb6ee351f123335c0bdfc24a191e21b36a71c1ab03da14ddaf29ba539f379",
					"protocol": "http",
					"host": [
						"localhost"
					],
					"port": "9000",
					"path": [
						"eth",
						"getransaction"
					],
					"query": [
						{
							"key": "tx_hash",
							"value": "0x41fdb6ee351f123335c0bdfc24a191e21b36a71c1ab03da14ddaf29ba539f379"
						}
					]
				}
			},
			"response": []
		},
		{
			"name": "crawltransactions",
			"request": {
				"method": "POST",
				"header": [],
				"body": {
					"mode": "raw",
					"raw": ""
				},
				"url": {
					"raw": "http://localhost:9000/eth/crawltransactions?blknumber=4034410",
					"protocol": "http",
					"host": [
						"localhost"
					],
					"port": "9000",
					"path": [
						"eth",
						"crawltransactions"
					],
					"query": [
						{
							"key": "blknumber",
							"value": "4034410"
						}
					]
				}
			},
			"response": []
		},
		{
			"name": "createrawtransaction",
			"request": {
				"method": "POST",
				"header": [],
				"body": {
					"mode": "raw",
					"raw": ""
				},
				"url": {
					"raw": "http://localhost:9000/eth/createrawtransaction?to=0x838c1fc803d79ddbd1e7de5e8ee0463899ff61a8&startgas&gasPrice&value&nonce=1&data",
					"protocol": "http",
					"host": [
						"localhost"
					],
					"port": "9000",
					"path": [
						"eth",
						"createrawtransaction"
					],
					"query": [
						{
							"key": "to",
							"value": "0x838c1fc803d79ddbd1e7de5e8ee0463899ff61a8"
						},
						{
							"key": "startgas",
							"value": null
						},
						{
							"key": "gasPrice",
							"value": null
						},
						{
							"key": "value",
							"value": null
						},
						{
							"key": "nonce",
							"value": "1"
						},
						{
							"key": "data",
							"value": null
						}
					]
				}
			},
			"response": []
		},
		{
			"name": "signrawtransaction",
			"request": {
				"method": "POST",
				"header": [],
				"body": {
					"mode": "raw",
					"raw": ""
				},
				"url": {
					"raw": "http://localhost:9000/eth/signrawtransaction?privkey=e148bd556b2a43fe8b949fb353c2adba46c8f479b8b0eaafb904085874686f6c&data=e901850ba43b740082520894838c1fc803d79ddbd1e7de5e8ee0463899ff61a888016345785d8a000080",
					"protocol": "http",
					"host": [
						"localhost"
					],
					"port": "9000",
					"path": [
						"eth",
						"signrawtransaction"
					],
					"query": [
						{
							"key": "privkey",
							"value": "e148bd556b2a43fe8b949fb353c2adba46c8f479b8b0eaafb904085874686f6c"
						},
						{
							"key": "data",
							"value": "e901850ba43b740082520894838c1fc803d79ddbd1e7de5e8ee0463899ff61a888016345785d8a000080"
						}
					]
				}
			},
			"response": []
		},
		{
			"name": "sendrawtransaction",
			"request": {
				"method": "POST",
				"header": [],
				"body": {
					"mode": "raw",
					"raw": ""
				},
				"url": {
					"raw": "http://localhost:9000/eth/sendrawtransaction?data=f86c01850ba43b740082520894838c1fc803d79ddbd1e7de5e8ee0463899ff61a888016345785d8a0000801ba04096cded65f0b27e8627778f1a8269fa9a4153ae5074899b7bf9345b3b4bb05ca0092311a78557e52b3588a4c14d695d7a73c6f03f7b4ef80b169aaab900c69be3",
					"protocol": "http",
					"host": [
						"localhost"
					],
					"port": "9000",
					"path": [
						"eth",
						"sendrawtransaction"
					],
					"query": [
						{
							"key": "data",
							"value": "f86c01850ba43b740082520894838c1fc803d79ddbd1e7de5e8ee0463899ff61a888016345785d8a0000801ba04096cded65f0b27e8627778f1a8269fa9a4153ae5074899b7bf9345b3b4bb05ca0092311a78557e52b3588a4c14d695d7a73c6f03f7b4ef80b169aaab900c69be3"
						}
					]
				}
			},
			"response": []
		}
	]
}